:100000000C944A000C945C000C945C000C945C0012
:100010000C945C000C945C000C945C000C945C00F0
:100020000C945C000C945C000C945C000C945C00E0
:100030000C945C000C945C000C945C000C945C00D0
:100040000C945C000C945C000C945C000C945C00C0
:100050000C94BB020C945C000C94ED020C945C00BC
:100060000C945C000C945C000C945C000C945C00A0
:100070000C945C000C945C000C945C007B037F038C
:10008000830387038B038F03930397039B039F03D0
:10009000A303A70311241FBECFEFD0E1DEBFCDBF66
:1000A00021E0A0E0B1E001C01D92A836B207E1F75F
:1000B0000E94FB030C9481040C940000529A509807
:1000C000519A229A239A249A2A982B982C985A98D3
:1000D000089580910001909101018131974240F093
:1000E0001092080110920901109201011092000172
:1000F00080910001909101010196909301018093FC
:1001000000010895E0910901F0E0E45EFE4F80E017
:1001100090E02191DC01A45EBE4F2C9301968930C2
:100120009105B9F780910901823110F0109209010F
:1001300081E0089581E080930C015A9AE0910B01CF
:100140008E0F80930B01F0E0E75BFE4F8081809380
:10015000C600089580E090E020E0FC01E75BFE4FE0
:100160003081230F019688309105B9F72093510112
:10017000089590910701E9E4F1E0908390910601E0
:100180009183828380911D018383872F9927AA27DA
:10019000BB278483CB01AA27BB278583BB27A72F37
:1001A000962F852F868347830E94AA000E949A007B
:1001B00008950F931F93CF93ECE1F1E024814581E3
:1001C0008681978150E060E070E0BA0155274427AE
:1001D000722B492B582BDB01CA014093020150932B
:1001E00003016093040170930501C181C03148F49B
:1001F000CE3008F022C1C93041F0CA3009F499C0AC
:1002000013C1C83809F4DDC00FC1C0911F01CC2350
:1002100051F040911F0150E060E070E087E00E94E3
:10022000B900C0E00AC120911E01213439F118F44F
:10023000203439F07AC02234F1F12C3409F458C05A
:1002400074C00091160110E020E030E080179107A3
:10025000A207B30739F040931601642F80E190E0C4
:100260000E945704409102015091030160910401E2
:100270007091050185E60E94B900DFC00091170169
:1002800010E020E030E080179107A207B30739F0B3
:1002900040931701642F81E190E00E945704409140
:1002A000020150910301609104017091050185E6FE
:1002B0000E94B900C2C00091180110E020E030E0B7
:1002C00080179107A207B30739F040931801642FF4
:1002D00082E190E00E945704409102015091030195
:1002E000609104017091050185E60E94B900A5C0E6
:1002F00000911A0110E020E030E080179107A2077A
:10030000B30739F040931A01642F84E190E00E9412
:1003100057044091020150910301609104017091D2
:10032000050185E60E94B90088C083E00E94B900FB
:1003300084C0C0911F01CC2351F040911F0150E0B7
:1003400060E070E087E00E94B900C0E076C0809174
:100350001E01813449F018F4803409F129C0823437
:1003600061F08C3499F024C04091170150E060E0B6
:1003700070E085E60E94B90060C04091180150E02D
:1003800060E070E085E60E94B90057C040911A0114
:1003900050E060E070E085E60E94B9004EC04091F8
:1003A000160150E060E070E085E60E94B90045C0AB
:1003B00040911E0150E060E070E083E00E94B900CF
:1003C0003CC0C0911E01C11119C080910701E9E430
:1003D000F1E0808384E6818388EC828380911D0133
:1003E000838386E5848381E385838EE2868380E34D
:1003F00087830E94AA000E949A001FC0C0911E011C
:10040000C11108C040E450E360E270E184E60E945C
:10041000B90013C040911E0150E060E070E083E03D
:100420000E94B900C0E009C040911D0150E060E0A9
:1004300070E082E00E94B900C0E08C2FCF911F9144
:100440000F91089545E050E060E170E086E191E0B1
:100450000E94470480911601823491F0E6E1F1E0B8
:1004600082E48083118284E68283138282E0848323
:1004700045E050E060E170E0CF010E94690404C0F3
:10048000809117010E947203E6E1F1E0848180937C
:1004900007018281809306010895CF92DF92EF9247
:1004A000FF926B017C01CC0CDD1CEE1CFF1CCC0C04
:1004B000DD1CEE1CFF1CCC0CDD1CEE1CFF1CA70180
:1004C0009601220F331F441F551F60E070E081EE3C
:1004D00090E00E941F042150310941E050E0C6160F
:1004E000D706E806F90610F040E050E0240F351F6B
:1004F0002093C4003093C500E1ECF0E08081886176
:100500008083E2ECF0E080818660808380E0FF9071
:10051000EF90DF90CF900895882331F0E1ECF0E088
:1005200080818068808305C0E1ECF0E08081807884
:10053000808380E00895882331F0E1ECF0E0808151
:100540008064808305C0E1ECF0E08081807480836A
:1005500080E00895E0910901F0E0EB5DFE4F8083BB
:10056000809109018F5F80930901809108018F5F5D
:100570008093080108951F920F920FB60F921124D5
:100580002F933F934F935F936F937F938F939F939B
:10059000AF93BF93EF93FF9310920101109200016C
:1005A0008091C600E4E6F1E080839091C0009183E1
:1005B00095E092830E94AA02FF91EF91BF91AF91C3
:1005C0009F918F917F916F915F914F913F912F916B
:1005D0000F900FBE0F901F9018951F920F920FB69D
:1005E0000F9211248F93EF93FF9380910C01882336
:1005F000D9F080910B01893030F010920C015A989B
:1006000010920B010DC0E0910B01F0E0E75BFE4F93
:1006100080818093C60080910B018F5F80930B01D6
:100620001092080110920901FF91EF918F910F90A4
:100630000FBE0F901F90189580910801893018F017
:1006400081E080930A01F89480910A01882309F4DB
:1006500041C01092100110920F0189E080930F01A8
:1006600080910F018230C0F0E091090180910F016B
:10067000F0E0E81BF109EB5DFE4F908180911001E5
:10068000890F8093100180910F01815080930F0199
:1006900080910F01823040F7E0910901F0E0EC5DBC
:1006A000FE4F808180930D019091100180910D018A
:1006B000981306C081E080930E011092080107C0D4
:1006C000109208011092090182E080930E011092AD
:1006D0000D0102C010920E01789410920A018091CF
:1006E0000E01089590E08C309105A0F5FC01E25CCC
:1006F000FF4F0C9441048FE58093C40008958FE36D
:100700008093C40008958FE28093C40008958FE120
:100710008093C400089587E18093C40008958FE01A
:100720008093C40008958BE08093C400089587E00F
:100730008093C400089583E08093C400089583E00B
:100740008093C400089581E08093C40008951092BE
:10075000C400089587E08093C40008950E941C039C
:10076000813009F047C00E94820090911C01809165
:10077000180198133FC00E94D9008E3019F08F30B5
:10078000E9F0089540911E01411112C040911F01EE
:10079000411107C040E050E0BA0184E60E94B90070
:1007A0000DC050E060E070E087E00E94B90006C034
:1007B00050E060E070E083E00E94B90040911E01CB
:1007C000411112C040911F01411107C040E050E0AB
:1007D000BA0184E60E94B900089550E060E070E03C
:1007E00087E00E94B900089550E060E070E083E087
:1007F0000E94B900089580E895E2A0E0B0E08093FF
:10080000110190931201A0931301B093140160E8B9
:1008100075E280E090E00E944D028093150181E036
:100820000E948C0281E00E949B020E9422020E9490
:100830005E0078940E94AE030E946900FBCFA1E2A3
:100840001A2EAA1BBB1BFD010DC0AA1FBB1FEE1F4A
:10085000FF1FA217B307E407F50720F0A21BB30B95
:10086000E40BF50B661F771F881F991F1A9469F711
:1008700060957095809590959B01AC01BD01CF016D
:100880000895EE0FFF1F0590F491E02D0994DC010F
:10089000CB01FC01F999FECF06C0F2BDE1BDF89A8B
:1008A000319600B40D9241505040B8F70895262F6C
:1008B000F999FECF92BD81BDF89A019700B4021656
:1008C00039F01FBA20BD0FB6F894FA9AF99A0FBE04
:1008D0000895DC01CB0103C02D910E9474044150A6
:1008E0005040D0F70895262FF999FECF1FBA92BD38
:1008F00081BD20BD0FB6F894FA9AF99A0FBE019601
:060900000895F894FFCFFA
:00000001FF
